:10000000F0060020DD240000D9240000D9240000DF
:1000100000000000000000000000000000000000E0
:10002000000000000000000000000000D9240000D3
:100030000000000000000000D9240000D9240000C6
:10004000D9240000D9240000D9240000D9240000BC
:10005000D9240000D9240000D92400001D1100007B
:10006000D9240000D9240000D92400000000000099
:10007000D9240000D9240000D9240000D92400008C
:10008000D9240000D9240000D9240000054B0648DB
:10009000033310B51B1A062B03D9044B002B00D0D9
:1000A000984710BD0C2800000C280000000000003C
:1000B0000648074910B5091A8910CB0F591849107D
:1000C00003D0044B002B00D0984710BD0C28000033
:1000D0000C2800000000000010B5074C2378002B0E
:1000E00009D1FFF7D3FF054B002B02D0044800E0F5
:1000F00000BF0123237010BD680000200000000035
:100100000C280000094B10B5002B03D00849094802
:1001100000E000BF08480368002B02D1FFF7C8FFCA
:1001200010BD064B002BF9D09847F7E70000000000
:100130006C0000200C2800000C28000000000000CB
:10014000F0B50B7885B016005A0601900C00920F9E
:10015000012A56D16279097912020A432D49087899
:100160000D00904202D0497891424AD15BB2002BF7
:100170000EDA0020012E4AD06378212B43D1E27998
:10018000A37912021A43072A3FD1A91D030013E0E5
:10019000E379A2791B0213431F001F4B9847637832
:1001A0000100202B02D0222B1BD02CE0072F2CD1BA
:1001B000002E05D133003A000198184CA04726E0E4
:1001C0003A0002A8164CA0472B69002B04D1A81DA9
:1001D000072202A9A04712E002A898470028F6D1FA
:1001E0000DE000230D4E1A0019001800B0476A698F
:1001F000002A04D0E078A37800021843904700203A
:1002000005E00A2002E00D2000E00120404205B098
:10021000F0BDC04684000020B92400007D2000000D
:1002200025260000F7B5150001294FD0002904D07C
:100230001B20022979D00D2077E083681068009395
:100240001E0002330193002801D10A206DE008212D
:10025000437982788B43022BF7D133789A425FD06F
:10026000FF2B5FD1327069680522314B9847041E1D
:100270001CD062792379A77812029A1892B2E17899
:1002800038002C4B984700284ED17BB22A4A002BCD
:1002900001DAB77001E0009B1F71380090472C60B5
:1002A000207869682018254B9847E0E72B680422DE
:1002B0001878696818181E4B9847019B01369E42B2
:1002C000C1D101221E4B20005A712FE08468002A00
:1002D00005D0136808225B799343022BB5D12378AC
:1002E000FF2B07D0FF25A0782570A84202D0154B20
:1002F0009847A5706378FF2B07D0FF25E0786570DD
:10030000A84202D00F4B9847E5702079FF2803D010
:100310000C4B9847FF2323710020094B587105E0CF
:10032000122002E01C2000E014204042FEBDC04626
:10033000F9140000051800009518000013150000BE
:10034000840000206918000010B50A4B9847012866
:100350000CD80948094B0062C3611830084B984714
:1003600001200849084B9847002001E01120404235
:1003700010BDC046C52400008400002025020000F6
:100380006124000000000020D523000070B50400A7
:100390000D00002802D00800431E9841012342228C
:1003A00018400949094B9847094B2560290020004E
:1003B0009847031E06DB074B2382074BE360074B7E
:1003C000A3600023180070BD2C2700009D130000BF
:1003D000711C00000080FFFF5D0400002504000088
:1003E00030B5050087B00C00002802D00800431E7D
:1003F00098410123BD2218400749084B98472368BC
:1004000003A90393636828000493A36801930593E9
:10041000034B984707B030BD2C2700009D13000008
:10042000051E00007FB50400431E98410E00150014
:10043000C0B2AD220649074B984700232000029323
:1004400001A9054B083801960395984704B070BD83
:100450002C2700009D130000E10300007FB504007D
:10046000431E98410E001500C0B291220649074B69
:10047000984700232000019301A9054B08380296F4
:100480000395984704B070BD2C2700009D13000011
:10049000E103000000207047074B9A8C920605D4B8
:1004A000D021DA680A40D02AFBD103E01022D968B3
:1004B0001142FCD07047C04600080040002803D01D
:1004C000002901D00230C0B214235843014B181840
:1004D00014307047A80000200F2370B5827C0724D9
:1004E00013401A00C17C08320C405B01012C08D07B
:1004F0001449520152181021D171134A9B18597294
:100500001FE04024214206D08025A143C1740E493A
:1005100059184D718C710824C17C0025A1430B4CE6
:10052000C17421005031C9188D728D760549520170
:1005300052186F21D171044A9B185972807CA368AC
:10054000984770BD00500041FF500041A8000020B6
:1005500020220F238A4010B5817CD2B20B4006497D
:100560005B015B185A72847C044B82681B69012111
:100570002000984710BDC046FF500041A800002051
:1005800010B50300807CFF2809D04024DA7C224289
:1005900005D0A243DA74024A14699A68A04710BDD4
:1005A000A8000020F0B585B00192877C03AE04005E
:1005B0000D00022213493000134B9847FF2F1FD024
:1005C0004021E37C0B421BD00F231F403B0008332C
:1005D0005A01002D04D00D4952188021117102E0FA
:1005E0000A48121851710949725D5B015B18DA7192
:1005F000074B7F01FF187A7201992000054B98473D
:1006000005B0F0BD4827000025260000005000413D
:10061000FF5000418105000002220F23F0B50C00BD
:1006200085B0857C374903AF1D408918364B0600DD
:1006300038009847354A6801130001922A00503368
:1006400008321B1832495201002C03D08A5C520632
:10065000520F02E0895C07220A40F17C00912101DF
:100660005B18997A9C462B00C9B20833022A15D12F
:10067000013A114212D06146897A5B0191430A0026
:1006800061468A7222493A5D5B18611E8C41DA71BB
:10069000204BE1B2C018427204221CE00222114039
:1006A0001DD06146897A5B0191430A0061468A72D6
:1006B00017493A5D5B18DA71164BC018072342726E
:1006C000009A1A40012A1AD1F17C4B0617D5C909A4
:1006D0008C4214D0002230000F4B98470FE0019855
:1006E0006A001219503012018218917208493A5D5D
:1006F0005B015B18DA71074B6D01ED186A7205B08A
:10070000F0BDC0464827000025260000A8000020B4
:1007100000500041FF500041A50500000B48F8B50E
:10072000050006000400FF27143550360321280079
:10073000074B98470021AF74E9741435B542F5D1E1
:1007400020006022034B50309847F8BDA8000020DD
:1007500081050000A12600000F23F7B500220091BB
:10076000867C04001E407701914205D0474B5033F0
:10077000DB195A699204920C238A45491D008B4269
:1007800001D0013B1DB20723E17C1940009B019180
:10079000002B04D03F4973015B180221D971A36873
:1007A000E07CD1186368A16099422BD25B1A9BB29E
:1007B000820611D5228A1D1C934200D9151C23687C
:1007C000ADB259182A00344BE06898472F49E268C7
:1007D0007301CB181A660BE080221D1C9201934214
:1007E00000D9151C2368ADB25918284BDB191966BE
:1007F000264BAD04DF197A6EAB0C950BAD031D4390
:100800007D660AE0102318420FD098431F4BE07416
:10081000DF197B6E9B0B9B037B667A6E1F4B13402D
:100820007B66009B002B2BD121E0019B012B03D188
:100830001B4BFF184B2302E0194BFF184A237B7216
:10084000238A2A4093420DD14025E37CA07CAB4310
:10085000E3740E4BA168DB689847002815D1E37C50
:100860002B43E374002120000E4B98470DE0019BC1
:100870004E22012B00D0043A094973015B189A7289
:10088000044B7601F61880237371F7BDA800002091
:10089000FF0300000051004125260000FF3F00F04B
:1008A000FF500041810500000F23F0B5857C87B023
:1008B0001D406B0104000E1E01930CD06B4B6A01AE
:1008C0009B18596D503309018A0C03925B689B0495
:1008D0009B0C019301E003910191238A644A0293E6
:1008E000934202D0013B9BB20293019B029FE27CA8
:1008F0001F4007231A400492002E04D05D4A6B016A
:100900009B180122DA71E37C9B060FD56368002BEC
:100910000CD0A26821689B1A88181A1C9BB2BB4293
:1009200000D93A1C92B2E168534B984763686A0158
:100930000592002B1AD11021E27C0A4263D08A432F
:1009400020331A43494BE2746A019B181900E2688C
:100950001A65228A586D494B9204120903401343C9
:100960004B654B6D9B0B9B034B6569E0002E0CD0D8
:10097000228ABA4209D91022E37C9343A268E37425
:100980009446019B6344A36044E0A068039A8446B4
:1009900062441100A26093423CD99B1A334AE07C26
:1009A000944620229BB2278A104209D0191CBB42D0
:1009B00000D9391C8BB2E06869016144086514E014
:1009C000BB4206D980208001834208D8029A934313
:1009D00006E0BB4204D220221043E07400E0030092
:1009E000206841186801604401656A0162449B0403
:1009F000506D1909214B03400B435365536D9B0BFD
:100A00009B0353651CE0002EB2D1A268039B944661
:100A10006344A360049B1A4A012B03D16B01D218D3
:100A20002D2302E06B01D21825235372002D02D131
:100A30000E4BE2681A6500212000124B984713E024
:100A4000002E0CD104996A012523012904D1074BFA
:100A500050339B189E762D23094952189372054BEB
:100A60006D01ED1840232B7107B0F0BDA8000020E8
:100A7000FF0300000051004125260000FF3F00F069
:100A8000FF50004181050000802207239200904220
:100A900014D8013AFF3A013B90420FD8013B80281D
:100AA0000CD8013B402809D8013B202806D8013B3F
:100AB000102803D8063383429B415B4218007047DD
:100AC000012370B525498A78244C1A42FBD10323AF
:100AD000A2781A42FCD1214B1B789B073BD4012200
:100AE000A0781E4901231042FAD10A781A430A70ED
:100AF000A2781A42FCD11A4B1A4D2B606B60AB6086
:100B0000EB602B61184B98471F21184B1B68580B43
:100B10009A0C9B0108400A405B0F884200D10520D7
:100B20001F2A00D1023A072B00D1023B8001024369
:100B30001B03134303222385E37850351343E370EB
:100B4000E37809321343E37004232370033B6562A7
:100B50000020238101E01120404270BD005000417F
:100B600095040000A80000201D07000024608000FC
:100B70000A4B9A7892070DD102211A78D2B20A4212
:100B800001D10A431A708021054A00201160054AEC
:100B90001A8301E0112040427047C04600500041D6
:100BA00000E100E08D0200000121024A13898B431D
:100BB000138170470050004180231843014B987205
:100BC0007047C04600500041F7B57F2306009E43A2
:100BD0000F0031000F244B1E9941044000902E4B12
:100BE000C9B2200001929847032305001F40022C40
:100BF0004AD8837CFF2B49D1002F10D1714271411B
:100C00002000254BC9B29847837CFF2B3ED1F33B94
:100C10006343224AD3185B68002B13D138E0002EBF
:100C200008D00C2363431D4AD3189A68002A15D0B4
:100C3000DB890EE00C236343184AD3185B68002B52
:100C400012D001E0002EECD10C236343134AD318D9
:100C50009B89019A93421BDB002E05D00C235C4339
:100C60000E4B1C19A36804E00C235C430B4B1C19AE
:100C70006368EB606B469B8801372B826B461B7861
:100C8000EF74AB74002005E0122002E0142000E0B5
:100C900013204042FEBDC046BD04000048270000AE
:100CA000F8B504000F20E70920403900164B060074
:100CB00098470500022E26D8837CFF2B23D00322E1
:100CC000124B390098470722EB7C1340012B05D1CA
:100CD000002208340E4B6401E25410E063B2002B92
:100CE00007DA70220B4B7001C018437893434370AE
:100CF00005E0084B6401E4186378934363700023B4
:100D0000EB74FF33AB74F8BDBD040000A505000013
:100D100000500041FF500041F7B57F230F240440ED
:100D2000984301004B1E994107004C4BC9B220006B
:100D300098474B4B6201D61873780500DBB2022C42
:100D400000D986E0817CFF2900D182E0454C5034F7
:100D5000A418C27C072011000140012946D170303F
:100D60000340019377D1113373702F8A3E4B3800C3
:100D700098473E4BBF031F40E0230007DB051840A8
:100D8000074367602F8A384B38009847E0230007F5
:100D9000DB05184040218023BF04BF0C0743676177
:100DA000B17173716B461B790F22A3726B461B796D
:100DB000A376AB7C134058012A4BEA681B181C0031
:100DC0001A652A8A5D6D2A4B920412092B4013433F
:100DD000B0226365636D9B0B9B036365204BC31857
:100DE0005A71A03A99719A72019836E0002F17D083
:100DF00070201F0007402ED1120102401343737070
:100E00002D8A194B28009847E0230007DB0518407E
:100E10008023AD04AD0C054365617371A77616E0C0
:100E20001840071E17D15207520F1A4372702D8AAD
:100E30000D4B280098470D4BAD031D40E0230007E4
:100E4000DB051840402328436060B371A772380067
:100E500003E0122000E014204042FEBDBD0400006B
:100E6000FF500041A8000020890A000000C0FF0FC9
:100E7000FF3F00F0F8B507000F25C4092F400E0012
:100E8000380021002B4B9847022F4FD8012E14D148
:100E90001022A240837C28491D406B01D2B25B180E
:100EA0005A712023A340254A6D01AD180822DBB2F8
:100EB000AB72C37C1343C3742BE0837C002E2AD116
:100EC0002B401F4A5B0199181C4A9B181022A24014
:100ED000DD792A421DD0D2B25A712022A240D5B269
:100EE0005D721E7A324204D00122A240D2B21D723B
:100EF0005A710723C27C1340012B07D1FF31C979F6
:100F00002F330B4005D108218A4301E008239A437F
:100F1000C27400200CE01020A0401D40064B6D0163
:100F2000ED18AB791840431E984101E01220404271
:100F3000F8BDC046BD04000000510041FF50004113
:100F400000500041F8B50F231840114B44015033B5
:100F50001B190F0019685D68AD04AD0C022812D88A
:100F6000002F10D00B4BE4186378112B0DD11026F5
:100F7000237A002033420AD008223800064B9847D3
:100F80002672280003E0122000E013204042F8BD42
:100F9000A8000020FF50004125260000F0B57F2367
:100FA0000F25067A87B035409E4333005A1E934181
:100FB000DBB21900029307003B4B280098473B49DE
:100FC000028A040013008A4201D0531E9BB2796842
:100FD0000B400393022D63D83D68354B9D420AD9DF
:100FE00034484B19834206D803231D4003D1002EF9
:100FF0000DD1914204D2E3680125002B07D14DE0C9
:10100000039B002B02D0E368002B49D03500E37C22
:1010100002201B0746D405A8274B9847E37C4021B4
:101020001A000A4001920198244A002803D005A81A
:101030009047012036E00B43E37405A890473B68D6
:10104000E27C23607B686360019BA360029BD90103
:101050007F231A400A4320217E3B1D408A436D01B5
:101060002A43E274797A019A002902D0039A514204
:101070004A41102113401A01E37C8B431343E3746C
:10108000002E05D0200000210D4B9847002009E0DC
:10109000200031000B4B9847300003E0132000E0A4
:1010A0001220404207B0F0BDBD040000FF03000065
:1010B000FFFFFF1FFF7F002099250000A7250000EC
:1010C00059070000A9080000064B002900D00B00BA
:1010D000012802D1044A536003E0002801D1024AEA
:1010E0001360704795040000A8000020094B0029F8
:1010F00000D00B00002802D1074A936008E00128C5
:1011000002D1054AD36003E0022801D1024A1361EB
:101110007047C04695040000A8000020F7B5694B51
:10112000694D1A8C92B20192002A56D19A8B1F8B6C
:10113000042017403A00024003D098832B68984758
:10114000BEE08021890039401FD06049998399828F
:101150009239FF391983290050310B891B071B0F66
:10116000032B06D00B8D11001B071B0F032B09D17E
:1011700001222B00520150339B18002219891A8139
:101180004904490D6B68032031E080223E0016407F
:1011900003D09A836B68052029E070223C0014403C
:1011A00009D09A839A82494A1A83494B98476B68B7
:1011B000310002201BE00826390031400BD04549A0
:1011C0004C709E839A82414A1A83434B98476B68BE
:1011D000210001200BE0FC0704D42C00002614346D
:1011E000012711E0394C9C839C821A836B689847D5
:1011F00066E00F231A403B0093400199194207D142
:1012000001361434032E5BD0A27CFF2AF1D1F7E71C
:10121000324953015B182F49520152181B78927AB8
:101220001340EDD0142247217243AA181032D27D08
:101230001140012908D1DA063ED440221A4023D1B8
:1012400011009B06DCD51FE07F21100088438446F7
:1012500015D0590601D5012116E0190701D5012144
:1012600024E0990703D5012120001D4B20E0072130
:101270000A40012AC4D100215A071BD516E02020BC
:101280000100194003D061462000164B10E05807BA
:101290000CD43B4203D001212000134B08E007216E
:1012A0000A40012AACD11A0704D5063920000F4B99
:1012B0009847A5E7DB06A3D520000D4B98479FE78D
:1012C000F7BDC04600500041A80000200102000008
:1012D00099040000FF5000411D0700000751004124
:1012E0005907000051050000A90800001906000078
:1012F000D9040000064B1A7AD2B21A725A7AD2B2C4
:101300005A729A7AD2B29A72DA7AD2B2DA72704792
:101310000004004010B5084B5A685A60074B9847C4
:10132000074B98470A20074CA047074B98470B20CC
:101330004042A04710BDC04600400041F5120000E9
:10134000E5130000B51400004114000000680028F7
:1013500002D08842FAD101207047000070B50C4BD2
:1013600005000C000668984701235840C0B2094B9D
:101370005922094998472B68002B01D12C6005E0C0
:101380003368002B01D01E00FAE73460236070BD83
:101390004D1300009D13000070270000002800D1AD
:1013A00000BE7047064810B5064B40309847064BC4
:1013B0009847064B06489847064B984710BDC046CD
:1013C00018020020012400004903000079240000D5
:1013D00008000020AD24000010B5014B984710BD57
:1013E000A5130000134B144A186A196A0240022020
:1013F000890F890701430A431A62104A1268D2040E
:10140000520E1104014399611F210A401A770422E8
:10141000D86808491042FBD080208A6902438A615B
:101420000821D868034A0842FBD08021136A0B4385
:1014300013627047000800400000FF0F2460800026
:101440000222184B9A840E32D9681142FCD0154AF8
:101450001549D162154A1268920E3F2A04D08021A4
:10146000920289000A4301E0FC22D2019A62022220
:101470009A849A8C520701D4102205E0D021DA68B0
:101480000A40D02AFBD102E0D9681142FCD0802169
:101490009A8C0A439A847F2205494B789343DB094F
:1014A000FBD1704700080040000001042460800068
:1014B000000C0040C30705D580220B4B52009A60F8
:1014C0000A4A5A60830705D50222074BFF329A6009
:1014D000074A5A60430705D58122034B52009A60A0
:1014E000044A5A607047C046000C004000070100E3
:1014F000010401000206010010B5884207D20378FA
:10150000012B04D94478944202D0C018F5E700209A
:1015100010BD884209D20378012B06D94278042AEB
:1015200003D0052A02D0C018F3E70020704700005E
:1015300070B50E4B150002220C009847031E14D004
:10154000A3420FD21A78012A0CD95A78022A09D15B
:101550005A79AA4208D0DA78997812028A1892B297
:101560009B18EDE7002000E0180070BDF9140000A2
:1015700070B50D0016000024A8420DD203222900E8
:10158000064B9847002808D00378012B04D9B442B1
:1015900003D0C0180134EFE7002070BDF91400003B
:1015A000084A0023517888420AD01378002B05D1CD
:1015B0000F221040431A581E834100E001235B4272
:1015C00018007047980200200020704770B5084B43
:1015D00004000D009847074B40011B189A78002023
:1015E000032A03D19B6929002000984770BDC0469B
:1015F000A115000098020020F0B53A4B87B000908A
:101600000F0001929847384D4401002F3DD12E190B
:10161000F770295D002935D1B27808347078F36904
:10162000032A29D1377B7C322C1901319743221DA3
:1016300098470100707800290BD00523B370033B55
:10164000F370002F01D1802210430121274B9847CE
:1016500045E0042303AAB37003915160002F02D127
:101660007C33034301E00F23034013720123100076
:1016700053721F4B984732E02C19221D98470223C2
:10168000B3702CE00123B37023E02B19012F0BD191
:101690000222DA70295D002904D19A700098134B58
:1016A000984716E0052209E0022F09D10422DA70DA
:1016B0002A5D002A01D19F7011E001229A7008E092
:1016C000032F03D100229A70053201E006229A709E
:1016D000DA702C19E178E369019A0098984707B00D
:1016E000F0BDC046A115000098020020750E000054
:1016F0009D0F0000F0B51C4B85B0040098471B4FB0
:1017000043010393FB180C33019319002000184B7D
:1017100098478026C0B2174D7642082806D001218E
:1017200020003443A847E0B2012119E000212643FC
:101730002000A847F3B2002118000293A847039B9A
:101740000199FE1801272000B77073699847002897
:1017500007D105233900B3702000A847390002984B
:10176000A84705B0F0BDC046A115000098020020B2
:10177000450F0000750E00000E4B10B59847031E74
:1017800016DB0D4C2022002120000C4B9847FF2334
:1017900063700B4B0B496361A361E36100200A4C4A
:1017A000A0470A490120A04709490220A047002379
:1017B000180010BDC10A000098020020A1260000F8
:1017C000C9150000F5160000ED100000CD15000051
:1017D000F915000010B5014B984710BDC910000065
:1017E00010B5014B984710BD710B000010B5014BAF
:1017F000984710BDA90B000010B5014B984710BDCC
:10180000B90B0000F8B5104C05000E001700A047FA
:10181000002813DAFF20A047041E11DB0B4B3A000F
:10182000310028009847031E0CDB094A6401131994
:101830005D7003231E40A654002303E0142300E040
:1018400015235B421800F8BDA1150000C90B00006C
:1018500098020020002110B582B2024B0800984780
:1018600010BDC0460518000070B5074B050098472D
:10187000041E07DB054B28009847054B64011C1923
:10188000FF23637070BDC046A1150000A10C0000CD
:101890009802002070B50C4B0500984700280FDB1C
:1018A0000A4C4001035D24185A4253410133A3708E
:1018B0002800074B9847002804DA0023A37001E0B2
:1018C0001220404270BDC046A115000098020020C1
:1018D000190D0000F0B5037A8BB0050001931800D4
:1018E000354B98476B7A061E03936C6860DB334B6D
:1018F00006A8984773010093009A314B9E18B3785D
:1019000004AAD71D3B703B78DBB20293029A2D4BA1
:10191000012A0FD10232B27006A89847284B009ACC
:10192000D35C002B16D0019BDA09039B591E8B4117
:10193000DBB22CE006A898473B780220DBB2052BEF
:1019400038D0062B04D00120002B33D1132030E0F7
:1019500010202EE0F27CB37C12029A1892B2002A78
:1019600004D104231400B370029B0FE0944200D909
:1019700014001349009B8C467F2163441B7B8B43DF
:1019800004D094429B4101225B4200E01A00297A74
:101990002D6807A807954460002A02D080220A43D8
:1019A00001E00F220A404372074B0272984701E0A0
:1019B000122040420BB0F0BDA11500009925000097
:1019C00098020020A72500009D0F0000F8B5050033
:1019D0000E1E1BD1124B9847041E1EDB022128004D
:1019E000104FB84700281AD031002800B847002807
:1019F00015DB012303210C48640100198370C170B9
:101A0000C369320028009847300008E0054B0129DF
:101A100000D002212800984701E012204042F8BD82
:101A2000A1150000750E00009802002070B50F4B44
:101A30000C00150098470E4B002D00D02B000028FD
:101A400013DB012C0DD0002C06D0022C0DD1094A3D
:101A500040011018C36108E0064A400110184361B4
:101A600003E0044A40011018836170BDA115000015
:101A7000C91500009802002010B5014B9847FEE7F9
:101A8000E11E000070B5FF241F2243091C40C0B2B4
:101A90000240E4014D1C07D1114B1219D2181378E2
:101AA00002318B4313701AE001250E4BE3189E1888
:101AB000EA40403634789B18AC432C4334703033C2
:101AC000284206D00F221878090102401143C9B2FA
:101AD00004E00F221878114090430143197070BD43
:101AE0004044004100440041F8B5C0258023C02790
:101AF000124C134AED05DB013F06AB60114EA262AA
:101B00001149A7620E206B61B04780230F4A1B0268
:101B1000AB600F49A2620F20A7626B61B047202320
:101B200004226B600B4B0C49A3620C4B0520A36293
:101B30004534237893432370B047F8BD00440041F7
:101B400000400040851A000002000E0000800040A6
:101B500002000F002000024002000500000002C049
:101B60000421044A136A0B431362034A034B5A804D
:101B70007047C046000400400E420000000C0040C8
:101B800010B5044B98470449044B05489847054B4A
:101B9000984710BD611B0000000800428D03000043
:101BA000D8020020E91A0000F8B5C025802380275C
:101BB000114C124AED05FF055B04AB60A762A262FF
:101BC000220004266B61583213780D49B343137019
:101BD00018200C4B984780230B4A9B04AB60A762EC
:101BE000A2626B61593423780849B34323701920EA
:101BF000044B9847F8BDC04600440041000100C0B6
:101C000006001800851A0000000200C00600190036
:101C10002021064BDA690A43DA615A6949180A43F6
:101C20005A61034A034B5A807047C0460004004083
:101C300006400000000C004010B5034B9847034BD2
:101C40009847034B984710BD111C000079170000FE
:101C5000A91B000010B5034B9847034B9847034B53
:101C6000984710BD15130000811B0000391C0000AF
:101C7000F8B5594B0600C818800AC0B20D00574F7E
:101C8000002800D09CE0564C1834002E02D02800CA
:101C9000431E98410123534A18403900524B98473C
:101CA000002C00D195E00123EA691A42FCD10323FC
:101CB000EA691A42FCD12B689B077FD40122E969AB
:101CC00001231142FBD12A681A432A60EA691A42A9
:101CD000FCD11C23356022781340082B36D1434AAF
:101CE0000120414B3900984762782078A37812028E
:101CF00002431B0413431A00E3781B0613433C4AB8
:101D000013402B6062792079A379120202431B04ED
:101D100013431A00E3791B061343364A1340364A2D
:101D200013436B60627A207AA37A120202431B0487
:101D300013431A00E37A1B0613436B622B00627B8A
:101D400030331A70EB69002BFCD128E02B4A0120BC
:101D5000254B3900984762782078A3781202024315
:101D60001B0413431A00E3781B061343204A134055
:101D70002B6062792079A379120202431B0413437A
:101D80001A00E3791B0613431D4A13408022920276
:101D900013436B60237B2B73637B30352B700723DE
:101DA0002279002013405A4253410222D31A337140
:101DB000E37BA27B1B021343F3800CE0112009E0BC
:101DC0000024A64200D062E7064A39003000064BE4
:101DD00098470D204042F8BD00F8FFBDB92700002C
:101DE00090270000150900009D130000F308000073
:101DF000FCFEFFFFBFDDFDFF40020200DF08000028
:101E0000BF1DFDFFF0B5046885B002900379200086
:101E10000393431E98410E684D682E4B0F00C0B2CD
:101E20002D4A2E499847E3695B073AD10322E369BB
:101E30001340FCD12268920735D51800217ECAB222
:101E400001920422019911420DD0A26A002D08D0FE
:101E500003992A70012901D8013502E0120A6A703B
:101E60000235013305E0834203D301220199114277
:101E70001CD17F220199914307D0012313205B429B
:101E8000638381332376404204E0BA689042D5D31D
:101E90009342D3D30323227E1A42FCD0032323761A
:101EA00015E0042000E01420404210E0029AD2889D
:101EB000002E09D003993278012901D8013603E0B8
:101EC0007178023609020A430130A262D1E705B0F7
:101ED000F0BDC0469D130000710A0000B927000044
:101EE00010B5024B9847024B984710BD551C000097
:101EF000D9130000064B10B51C69002C06D0200039
:101F000063680022012198472468F6E710BDC046A7
:101F1000B802002070B505000E00064BDC68002CEE
:101F200007D06368002B02D031002800984724684E
:101F3000F5E770BDB8020020F8B505000E001700E7
:101F40000B4B9C68002C0FD06368002B01D12468D8
:101F5000F8E73A00310028009847002806D00A30F8
:101F6000F5D00120404202E0200000E00120F8BD51
:101F7000B8020020054B10B55C68002C05D06368E2
:101F8000002B00D098472468F7E710BDB802002066
:101F900010B51400002907D0012928D10A00154BDB
:101FA00021000020984722E01378002B1FD153789E
:101FB000052B0DD0092B1AD1A3780F4AD376E178DF
:101FC000A378090219434B1E9941033191760BE026
:101FD0000A4B90789847E178A378090219434B1E81
:101FE0009941054B023199760120054B9847002015
:101FF00010BDC046391F0000B8020020F9170000CC
:10200000151F000070B5002402260C4B98470C4D9C
:1020100020000C4BAE76EC766C7798470A4B287F05
:1020200098470A4D21002000094AA8473100094A73
:102030002000A8472000084B984770BDF51E0000FF
:10204000B802002069180000551800002D1A000081
:1020500099200000911F00009518000010B500287D
:1020600004D0012804D1034B984701E0024B984764
:1020700010BDC04605200000151F00001FB501ACB3
:10208000207263722000034B01910292984704B0C2
:1020900010BDC046D5180000F7B5BD4B00220400A6
:1020A0000D0098470022431C00D190E1013290427C
:1020B00000D18CE129781F230A009A4303D0802A9B
:1020C00000D1B8E082E1687801380A2800D97DE1C2
:1020D00000F07AFA47007C0153007C0143007C0148
:1020E0007C017C010B007C016400AA78002A02D1EB
:1020F000A84B984731E0A84D2B6803CBA74B9847D6
:10210000002800D162E1C17883780902591889B2A8
:102110004118A34B042201919847FF230090009A95
:10212000002A1AD097789F420BD02E69002E09D032
:102130006A460021300073689847002802D036684C
:10214000F4E71F00009B0422187801991818944B9B
:10215000009098473B000090E1E700220123110026
:10216000CAE0022900D031E1EE79AB7936021E4394
:1021700000D02BE1287931000AE0022900D025E1C6
:10218000EE79AB7936021E4300D01FE12879013980
:10219000844B9847012332003100D8E0EE78AB78C9
:1021A00036021E432B796D797B4C2D021D4323682B
:1021B000E27E03CB794B9847002800D106E1042248
:1021C0000090C17883780902591889B24118744F78
:1021D0000191B847002800D1F8E08378AB4206D0DF
:1021E000009B04221878019918180090F1E7C37831
:1021F000B342F5D127690090002F00D1E6E001211C
:102200006A4638007B689847011E01D03F68F3E7B3
:102210007B686A4638009847002800D0D6E0002E38
:1022200004D00123AB40627F1343637700231A007D
:1022300019001800A7E068780A2800D9C6E000F065
:10224000B9F96AC5C5C5C5C506C562C58800E978BE
:10225000AA78090211430B0A022B19D0032B33D0A1
:10226000012B00D0B2E0EB79AA791B0213431A1CB0
:10227000122B00D91222484B95B21B68012203CBC6
:10228000474B9847011E00D1A0E000232A0033E00D
:10229000EE79AB7936021E433F4B01311D7F1B683F
:1022A000CAB203CB3D4B9847011E00D18EE0C278E5
:1022B000837812029A1892B2002396421BD96B1EA1
:1022C0001E407342734114E0AE79ED79324B2D021A
:1022D0002E431D7F1B68CAB203CB334B9847011EA8
:1022E00074D002780023964205D9013D35406B42F7
:1022F0006B411600DBB2320020002C4CA04742425A
:102300004241D2B263E02449CB7E4A6913704969E5
:10231000002301221BE01F231940012902D90229B1
:1023200003D053E00023009308E028791D4B984721
:10233000002290424BDB012318400090164D0222F0
:1023400069461B4B6869984700230222696920008F
:1023500019E011496B792A79487F1B021343184110
:1023600001240E00204025D14B69220018704969D4
:1023700003000E4DA847220029E07369012218705E
:10238000002318007169094CA04701221FE0C046D4
:10239000391F0000F51E0000B802002031150000B2
:1023A000F9140000CD190000711500007D20000017
:1023B000252600000C69002C08D02A0002212000EC
:1023C000636898470028D8DA2468F4E700221000F0
:1023D000FEBDC04610B5012809D0002804D002284F
:1023E00009D105480C3004E00348043001E00248FC
:1023F0000830024B984710BDB80200205D13000062
:1024000070B50400431E98410C4AC0B20C490D4BF4
:1024100098470D4B9847031E0EDB0C4D0C4B2022AA
:102420000021280098476C610A4900200A4CA04707
:102430000A490120A0470023180070BD5F03000077
:10244000D42700009D13000079170000B802002077
:10245000A1260000751F0000D51700005D200000B8
:1024600010B501000248034B1030984710BDC0461C
:10247000B80200205D13000010B50A4B9C7E002CB2
:102480000BD100280BD002681860D2791A7701228C
:102490009A76054B9847200003E0042000E00920CD
:1024A000404210BDB8020020E117000010B5014BFA
:1024B000984710BDED170000014B58697047C046A2
:1024C000B8020020034B987E1023184200D0180059
:1024D0007047C046B8020020FEE7000021482249AC
:1024E00070B5884202D00023204C03E0204B214AE3
:1024F000002106E0CA18A242F8D2C558043315607C
:10250000F8E7934201D202C3FBE7FF21022403252F
:10251000194B1A4A8B430C2693600822184B194911
:102520005C62CB78AB432343CB70CB78B34313438C
:10253000CB703021144B987B884310390843987333
:10254000997BB1431143997380219A7BAA4322431B
:102550009A730E4A53680B4353600D4B98470D4BCB
:102560009847FEE70C2800000000002068000020CB
:1025700068000020EC0200200000000000ED00E0F8
:10258000FC70004100500041004800410040004103
:10259000DD250000791A0000EFF31083036072B6A6
:1025A000BFF35F8F7047BFF35F8F036883F31088BB
:1025B0007047000002B4714649084900095C4900AF
:1025C0008E4402BC7047C04603B4714649084000BF
:1025D0004900095A49008E4403BC704770B50D4E3E
:1025E0000D4D0024AD1BAD1005D0A300F3580134F0
:1025F0009847A542F9D100F0F9F8084E084D00249B
:10260000AD1BAD1005D0A300F35801349847A54287
:10261000F9D170BDF8270000F8270000F827000066
:10262000FC27000070B50F2A32D90C0004430B00C0
:10263000A40731D115000400103D2D0901352D01ED
:1026400049191E6826605E6866609E68A660DE683E
:102650001033E66010349942F3D10F23451913402B
:10266000032B1BD91C1F0023A4080134A400CE583F
:10267000EE5004339C42FAD103232D1909191A4054
:1026800005D00023CC5CEC5401339A42FAD170BDE2
:102690000500002AF5D1FAE70500F2E71A00F8E78D
:1026A00070B583073FD0541E002A3BD0CEB2030042
:1026B000032503E0621E002C34D0140001335A1E9F
:1026C00016702B42F6D1032C24D9FF250D402A0287
:1026D00015432A0415430F2C11D92600103E360944
:1026E000013636011A009B19156055609560D5605A
:1026F00010329342F8D10F221440032C0AD9261F1E
:10270000B6080136B6001A009B1920C29342FCD1CC
:1027100003221440002C05D0C9B21C1919700133D2
:102720009C42FBD170BD14000300CCE72E2E2F6815
:10273000616C2F7372632F68616C5F7370695F6D7A
:102740005F73796E632E6300254A0408D801002068
:102750000000000040000000980100200000000080
:102760004000000058010020000000004000000070
:102770002E2E2F68616C2F7574696C732F737263C2
:102780002F7574696C735F6C6973742E630000003D
:102790000000000000000000000000000000000039
:1027A00000000000000000000C00300000000200EB
:1027B00000000000FF00FF01002E2E2F68706C2F1C
:1027C000736572636F6D2F68706C5F736572636F92
:1027D0006D2E63002E2E2F7573622F6465766963EC
:1027E000652F75736264632E63000000F8B5C04600
:1027F000F8BC08BC9E46704705010000F8B5C0460D
:0C280000F8BC08BC9E467047D9000000E0
:10280C0000000000410100001000002065000020C5
:10281C001201000202000040EB030424000100003E
:10282C00000109024300020100803209040000018A
:10283C0002020000052400011005240101000424FB
:10284C00020205240600010705820340000A090460
:10285C000100020A00000007050102400000070504
:08286C008102400000000000A1
:00000001FF
