:1000000030040020D1090000CD090000CD09000016
:1000100000000000000000000000000000000000E0
:10002000000000000000000000000000CD090000FA
:100030000000000000000000CD090000CD09000014
:10004000CD090000CD090000CD090000CD09000058
:10005000CD090000CD090000CD090000CD09000048
:10006000CD090000CD090000CD090000000000000E
:10007000CD090000CD090000CD090000CD09000028
:10008000CD090000CD090000CD090000054B064850
:10009000033310B51B1A062B03D9044B002B00D0D9
:1000A000984710BD540B0000540B000000000000E6
:1000B0000648074910B5091A8910CB0F591849107D
:1000C00003D0044B002B00D0984710BD540B000008
:1000D000540B00000000000010B5074C2378002BE3
:1000E00009D1FFF7D3FF054B002B02D0044800E0F5
:1000F00000BF0123237010BD00000020000000009D
:10010000540B0000094B10B5002B03D008490948D7
:1001100000E000BF08480368002B02D1FFF7C8FFCA
:1001200010BD064B002BF9D09847F7E70000000000
:1001300004000020540B0000540B000000000000DD
:1001400070B504000D00002802D00800431E98413D
:100150000123422218400949094B9847094B256061
:10016000290020009847031E06DB074B2382074B1C
:10017000E360074BA3600023180070BDD40A0000A1
:10018000A5020000510700000080FFFF11020000DF
:10019000D901000030B5050087B00C00002802D05E
:1001A0000800431E98410123BD2218400749084B0F
:1001B0009847236803A90393636828000493A368FE
:1001C00001930593034B984707B030BDD40A000054
:1001D000A5020000E50800007FB50400431E984119
:1001E0000E001500C0B2AD220649074B9847002308
:1001F0002000029301A9054B083801960395984702
:1002000004B070BDD40A0000A502000095010000F2
:100210007FB50400431E98410E001500C0B2912224
:100220000649074B984700232000019301A9054B7D
:10023000083802960395984704B070BDD40A0000B0
:10024000A502000095010000064B1A7AD2B21A727C
:100250005A7AD2B25A729A7AD2B29A72DA7AD2B2FE
:10026000DA72704700040040022110B5084A536852
:100270000B435360074B9847074B98470420074CA4
:10028000A047074B984705204042A04710BDC046F5
:100290000040004149020000AD02000039030000A7
:1002A000C1020000002800D100BE70470221034BAC
:1002B0009A690A439A6100221A7770470008004041
:1002C0000222184B9A840E32D9681142FCD0154A8A
:1002D0001549D162154A1268920E3F2A04D0802136
:1002E000920289000A4301E0FC22D2019A62104A7C
:1002F0009A849A8C520701D4102205E0D021DA6842
:100300000A40D02AFBD102E0D9681142FCD07F21FB
:10031000084842788A43D209FBD102219A698A436C
:100320009A617047000800400000010424608000CA
:1003300042050000000C0040C30705D580220A4B8F
:1003400092009A60094A5A60830704D5064B084A0E
:100350009A60084A5A60430705D58122024B520031
:100360009A60054A5A607047000C0040000721005F
:100370000104000001070100020321001F23C02225
:1003800018401E3B83408021D2059360C9059AB274
:100390000A4304491B0C8A62C022120613438B6273
:1003A0007047C046004400410023834202D0C0464B
:1003B0000133FAE77047000070B505000024AC4235
:1003C00005D0FA20024B000198470134F7E770BDD1
:1003D000A9030000F8B57F4B984701217E4A7F4C66
:1003E000937804200B4393707D4A802513786D0524
:1003F0008B431370A0470820A0471C20A047C024AF
:10040000E4050026802218231204A56132420BD095
:10041000C046FFE7FFE7FFE7FFE7FFE7FFE7FFE78C
:10042000FFE7FFE765610AE0C046C0466561C04678
:10043000FFE7FFE7FFE7FFE7FFE7FFE7FFE7013B36
:100440005208002BE1D18021182230020904A56155
:1004500001420BD0C046FFE7FFE7FFE7FFE7FFE7FA
:10046000FFE7FFE7FFE7FFE765610AE0C046C04638
:100470006561C046FFE7FFE7FFE7FFE7FFE7FFE74C
:10048000FFE7013A4908002AE1D1802133041832FC
:100490000904A56119420BD0C046FFE7FFE7FFE75B
:1004A000FFE7FFE7FFE7FFE7FFE7FFE765610AE038
:1004B000C046C0466561C046FFE7FFE7FFE7FFE7CC
:1004C000FFE7FFE7FFE7013A4908002AE1D1802171
:1004D0000343334318320904A56119420BD0C046C7
:1004E000FFE7FFE7FFE7FFE7FFE7FFE7FFE7FFE7DC
:1004F000FFE765610AE0C046C0466561C046FFE7A8
:10050000FFE7FFE7FFE7FFE7FFE7FFE7013A4908FB
:10051000002AE1D10A20334FB847802301365B001F
:100520009E4200D06EE7FF26802218231204A561A8
:1005300032420BD0C046FFE7FFE7FFE7FFE7FFE7E8
:10054000FFE7FFE7FFE7FFE765610AE0C046C04657
:100550006561C046FFE7FFE7FFE7FFE7FFE7FFE76B
:10056000FFE7013B5208002BE1D180231822300223
:100570001B04A56103420BD0C046FFE7FFE7FFE77E
:10058000FFE7FFE7FFE7FFE7FFE7FFE765610AE057
:10059000C046C0466561C046FFE7FFE7FFE7FFE7EB
:1005A000FFE7FFE7FFE7013A5B08002AE1D180217E
:1005B000330418320904A561194215D0C046FFE77B
:1005C000FFE7FFE7FFE7FFE7FFE7FFE7FFE7FFE7FB
:1005D000656114E0C1090000000400407D030000D3
:1005E0005C440041B9030000C046C0466561C04696
:1005F000FFE7FFE7FFE7FFE7FFE7FFE7FFE7013A76
:100600004908002AD7D18021034333431832090413
:10061000A56119420BD0C046FFE7FFE7FFE7FFE700
:10062000FFE7FFE7FFE7FFE7FFE765610AE0C04696
:10063000C0466561C046FFE7FFE7FFE7FFE7FFE76A
:10064000FFE7FFE7013A4908002AE1D10A20B8474D
:10065000013E00D368E7D4E6C0208022204BF0B5ED
:10066000C0251C001F49C005D2018260996201218A
:100670002D069D624E34426122781E008A430A4351
:1006800022700F2202273736347894433C4334706B
:100690008024154F240284609F629D621D00446186
:1006A0004F352C788C430C432C7020243578154022
:1006B000254335701D00042644600C48453598627A
:1006C0000B48986228783233B043287028788843E2
:1006D0000143297019780A4022431A70F0BDC046C0
:1006E00000440041004000400080004020000240E3
:1006F000000002C00421044A136A0B431362034A38
:10070000034B5A807047C046000400400E41000071
:10071000000C004010B5044B98470449044B0548B1
:100720009847054B984710BDF506000000080042A9
:10073000410100001C0000205906000010B5024BCA
:100740009847024B984710BD69020000150700004A
:10075000F8B5594B0600C818800AC0B20D00574FB3
:10076000002800D09CE0564C1834002E02D02800FF
:10077000431E98410123534A18403900524B984771
:10078000002C00D195E00123EA691A42FCD1032331
:10079000EA691A42FCD12B689B077FD40122E969E0
:1007A00001231142FBD12A681A432A60EA691A42DE
:1007B000FCD11C23356022781340082B36D1434AE4
:1007C0000120414B3900984762782078A3781202C3
:1007D00002431B0413431A00E3781B0613433C4AED
:1007E00013402B6062792079A379120202431B0423
:1007F00013431A00E3791B061343364A1340364A63
:1008000013436B60627A207AA37A120202431B04BC
:1008100013431A00E37A1B0613436B622B00627BBF
:1008200030331A70EB69002BFCD128E02B4A0120F1
:10083000254B3900984762782078A378120202434A
:100840001B0413431A00E3781B061343204A13408A
:100850002B6062792079A379120202431B041343AF
:100860001A00E3791B0613431D4A134080229202AB
:1008700013436B60237B2B73637B30352B70072313
:100880002279002013405A4253410222D31A337175
:10089000E37BA27B1B021343F3800CE0112009E0F1
:1008A0000024A64200D062E7064A39003000064B19
:1008B00098470D204042F8BD00F8FFBD190B00001D
:1008C000F00A000015090000A5020000F30800006E
:1008D000FCFEFFFFBFDDFDFF40020200DF0800005D
:1008E000BF1DFDFFF0B5046885B0029003792000BC
:1008F0000393431E98410E684D682E4B0F00C0B203
:100900002D4A2E499847E3695B073AD10322E369F0
:100910001340FCD12268920735D51800217ECAB257
:1009200001920422019911420DD0A26A002D08D033
:1009300003992A70012901D8013502E0120A6A7070
:100940000235013305E0834203D3012201991142AC
:100950001CD17F220199914307D0012313205B42D0
:10096000638381332376404204E0BA689042D5D352
:100970009342D3D30323227E1A42FCD0032323764F
:1009800015E0042000E01420404210E0029AD288D2
:10099000002E09D003993278012901D8013603E0ED
:1009A0007178023609020A430130A262D1E705B02C
:1009B000F0BDC046A5020000710A0000190B00003E
:1009C00010B5014B984710BD3D070000FEE7000041
:1009D0002148224970B5884202D00023204C03E010
:1009E000204B214A002106E0CA18A242F8D2C5587D
:1009F00004331560F8E7934201D202C3FBE7FF21FD
:100A000002240325194B1A4A8B430C2693600822B3
:100A1000184B19495C62CB78AB432343CB70CB783E
:100A2000B3431343CB703021144B987B8843103968
:100A300008439873997BB1431143997380219A7B42
:100A4000AA4322439A730E4A53680B4353600D4BDB
:100A500098470D4B9847FEE7540B0000000000201C
:100A600000000020000000203000002000000000F6
:100A700000ED00E0FC7000410050004100480041E2
:100A8000004000418D0A0000D503000070B50D4EF6
:100A90000D4D0024AD1BAD1005D0A300F35801345B
:100AA0009847A542F9D100F045F8084E084D0024BA
:100AB000AD1BAD1005D0A300F35801349847A542F3
:100AC000F9D170BD400B0000400B0000400B00004E
:100AD000440B00002E2E2F68616C2F7372632F68F9
:100AE000616C5F7370695F6D5F73796E632E630015
:100AF00000000000000000000000000000000000F6
:100B000000000000000000000C00300000000200A7
:100B1000000000000500FF01002E2E2F68706C2FD2
:100B2000736572636F6D2F68706C5F736572636F4E
:100B30006D2E6300F8B5C046F8BC08BC9E467047F1
:100B400005010000F8B5C046F8BC08BC9E467047D9
:040B5000D9000000C8
:00000001FF
