:100000004004002059080000550800005508000071
:1000100000000000000000000000000000000000E0
:100020000000000000000000000000005508000073
:100030000000000000000000550800005508000006
:10004000550800005508000055080000550800003C
:10005000550800005508000055080000550800002C
:100060005508000055080000550800000000000079
:10007000550800005508000055080000550800000C
:10008000550800005508000055080000054B0648BB
:10009000033310B51B1A062B03D9044B002B00D0D9
:1000A000984710BDF0090000F009000000000000B2
:1000B0000648074910B5091A8910CB0F591849107D
:1000C00003D0044B002B00D0984710BDF00900006E
:1000D000F00900000000000010B5074C2378002B49
:1000E00009D1FFF7D3FF054B002B02D0044800E0F5
:1000F00000BF0123237010BD0C0000200000000091
:10010000F0090000094B10B5002B03D0084909483D
:1001100000E000BF08480368002B02D1FFF7C8FFCA
:1001200010BD064B002BF9D09847F7E70000000000
:1001300010000020F0090000F0090000000000009D
:1001400070B504000D001600002802D00800431E00
:10015000984101233E2218400449054B984732003C
:10016000290023682000984770BDC0465C09000044
:100170002D03000070B504000D00002802D0080017
:10018000431E98410123422218400949094B9847D0
:10019000094B2560290020009847031E06DB074B0A
:1001A0002382074BE360074BA3600023180070BD58
:1001B000700900002D030000A90500000080FFFF6A
:1001C0006D0200003502000010B50400431E984186
:1001D0005B220449C0B2044B98472000034B984768
:1001E00010BDC046700900002D0300003D0700004F
:1001F00030B5050087B00C00002802D00800431E6F
:1002000098410123BD2218400749084B98472368AD
:1002100003A90393636828000493A36801930593DB
:10022000034B984707B030BD700900002D03000054
:100230006D0700007FB50400431E98410E001500B5
:10024000C0B2AD220649074B984700232000029315
:1002500001A9054B083801960395984704B070BD75
:10026000700900002D030000F10100007FB50400BB
:10027000431E98410E001500C0B291220649074B5B
:10028000984700232000019301A9054B08380296E6
:100290000395984704B070BD700900002D0300005D
:1002A000F101000070B504000D00002802D0080024
:1002B000431E98410123C82218400349034B0834C8
:1002C00098472C60002070BD700900002D030000CD
:1002D000064B1A7AD2B21A725A7AD2B25A729A7AF1
:1002E000D2B29A72DA7AD2B2DA727047000400405F
:1002F000062110B5084A53680B435360074B9847D3
:10030000074B98470A20074CA047074B98470B20FC
:100310004042A04710BDC04600400041D10200004D
:10032000350300000504000091030000002800D1FF
:1003300000BE7047134B144A186A196A0240022023
:10034000890F890701430A431A62104A1268D204CE
:10035000520E1104014399611F210A401A770422A9
:10036000D86808491042FBD080208A6902438A611C
:100370000821D868034A0842FBD08021136A0B4346
:1003800013627047000800400000FF0F24608000E7
:100390000222184B9A840E32D9681142FCD0154AB9
:1003A0001549D162154A1268920E3F2A04D0802165
:1003B000920289000A4301E0FC22D2019A620222E1
:1003C0009A849A8C520701D4102205E0D021DA6871
:1003D0000A40D02AFBD102E0D9681142FCD080212A
:1003E0009A8C0A439A847F2205494B789343DB0910
:1003F000FBD1704700080040000001042460800029
:10040000000C0040C30705D580220B4B52009A60B8
:100410000A4A5A60830705D50222074BFF329A60C9
:10042000074A5A60430705D58122034B52009A6060
:10043000044A5A607047C046000C004000070100A3
:10044000010401000206010010B5024B9847024B5F
:100450009847FCE7490800005D04000013B5074C0D
:1004600001A92000064B98472000064B98470C2214
:1004700005490198054B984713BDC0462800002048
:10048000A5020000C9010000000000204101000099
:10049000C0208022204BF0B5C0251C001F49C0059C
:1004A000D2018260996201212D069D624E34426123
:1004B00022781E008A430A4322700F220227373611
:1004C000347894433C4334708024154F2402846074
:1004D0009F629D621D0044614F352C788C430C4314
:1004E0002C70202435781540254335701D000426D6
:1004F00044600C48453598620B489862287832333E
:10050000B0432870287888430143297019780A403D
:1005100022431A70F0BDC046004400410040004034
:100520000080004020000240000002C00421044A74
:10053000136A0B431362034A034B5A807047C04649
:10054000000400400E420000000C004010B5044BB7
:1005500098470449044B05489847054B984710BDF8
:100560002D05000000080042750100002800002051
:100570009104000010B5024B9847024B984710BDFC
:10058000F10200004D050000C369DB0709D4032216
:10059000C3691340FCD1022102680A4302601800BB
:1005A00001E0042040427047F8B5594B0600C818D6
:1005B000800AC0B20D00574F002800D09CE0564C76
:1005C0001834002E02D02800431E98410123534ABC
:1005D00018403900524B9847002C00D195E0012378
:1005E000EA691A42FCD10323EA691A42FCD12B685A
:1005F0009B077FD40122E96901231142FBD12A68BC
:100600001A432A60EA691A42FCD11C233560227819
:100610001340082B36D1434A0120414B39009847FB
:1006200062782078A378120202431B0413431A0055
:10063000E3781B0613433C4A13402B606279207910
:10064000A379120202431B0413431A00E3791B0629
:100650001343364A1340364A13436B60627A207A5A
:10066000A37A120202431B0413431A00E37A1B0607
:1006700013436B622B00627B30331A70EB69002BE3
:10068000FCD128E02B4A0120254B3900984762789D
:100690002078A378120202431B0413431A00E37864
:1006A0001B061343204A13402B6062792079A379FB
:1006B000120202431B0413431A00E3791B0613437F
:1006C0001D4A13408022920213436B60237B2B73DD
:1006D000637B30352B7007232279002013405A4268
:1006E00053410222D31A3371E37BA27B1B021343D3
:1006F000F3800CE0112009E00024A64200D062E75C
:10070000064A39003000064B98470D204042F8BD9C
:1007100000F8FFBDB50900008C09000015090000B4
:100720002D030000F3080000FCFEFFFFBFDDFDFF0E
:1007300040020200DF080000BF1DFDFF10B5041ECF
:1007400002D00068431E98410123044A184004491E
:10075000044B98472068044B984710BD6C09000073
:10076000B50900002D03000089050000F0B50468FC
:1007700085B00290037920000393431E98410E68D0
:100780004D682E4B0F00C0B22D4A2E499847E369A1
:100790005B073AD10322E3691340FCD12268920738
:1007A00035D51800217ECAB2019204220199114266
:1007B0000DD0A26A002D08D003992A70012901D812
:1007C000013502E0120A6A700235013305E0834206
:1007D00003D30122019911421CD17F220199914337
:1007E00007D0012313205B42638381332376404289
:1007F00004E0BA689042D5D39342D3D30323227E38
:100800001A42FCD00323237615E0042000E01420D4
:10081000404210E0029AD288002E09D00399327823
:10082000012901D8013603E07178023609020A4332
:100830000130A262D1E705B0F0BDC0462D03000033
:10084000710A0000B509000010B5014B984710BDB2
:1008500075050000FEE700002148224970B5884276
:1008600002D00023204C03E0204B214A002106E067
:10087000CA18A242F8D2C55804331560F8E793426B
:1008800001D202C3FBE7FF2102240325194B1A4AB8
:100890008B430C2693600822184B19495C62CB7875
:1008A000AB432343CB70CB78B3431343CB7030219E
:1008B000144B987B8843103908439873997BB14354
:1008C0001143997380219A7BAA4322439A730E4A5B
:1008D00053680B4353600D4B98470D4B9847FEE709
:1008E000F0090000000000200C0000200C00002097
:1008F0003C0000200000000000ED00E0FC70004122
:10090000005000410048004100400041150900002E
:100910004904000070B50D4E0D4D0024AD1BAD1007
:1009200005D0A300F35801349847A542F9D100F04F
:100930004FF8084E084D0024AD1BAD1005D0A300A4
:10094000F35801349847A542F9D170BDDC09000085
:10095000DC090000DC090000E00900002E2E2F68F1
:10096000616C2F7372632F68616C5F696F2E630017
:100970002E2E2F68616C2F7372632F68616C5F730A
:1009800070695F6D5F73796E632E63000000000015
:100990000000000000000000000000000000000057
:1009A000000000000C003000000002000000000009
:1009B000FF00FF01002E2E2F68706C2F736572638D
:1009C0006F6D2F68706C5F736572636F6D2E63005F
:1009D000F8B5C046F8BC08BC9E467047050100004B
:1009E000F8B5C046F8BC08BC9E467047D900000068
:0C09F00048656C6C6F20576F726C6421BE
:00000001FF
